{
    "_format": "hh-sol-artifact-1",
    "contractName": "DecentralizedVoting",
    "sourceName": "contracts/DecentralizedVoting.sol",
    "abi": [
        {
            "inputs": [],
            "stateMutability": "nonpayable",
            "type": "constructor"
        },
        {
            "anonymous": false,
            "inputs": [
                {
                    "indexed": true,
                    "internalType": "address",
                    "name": "adminAddress",
                    "type": "address"
                }
            ],
            "name": "AdminAdded",
            "type": "event"
        },
        {
            "anonymous": false,
            "inputs": [
                {
                    "indexed": true,
                    "internalType": "address",
                    "name": "candidateAddress",
                    "type": "address"
                },
                {
                    "indexed": true,
                    "internalType": "string",
                    "name": "candidateName",
                    "type": "string"
                }
            ],
            "name": "CandidateAdded",
            "type": "event"
        },
        {
            "anonymous": false,
            "inputs": [
                {
                    "indexed": true,
                    "internalType": "address",
                    "name": "voter",
                    "type": "address"
                },
                {
                    "indexed": true,
                    "internalType": "uint256",
                    "name": "candidateId",
                    "type": "uint256"
                }
            ],
            "name": "Voted",
            "type": "event"
        },
        {
            "anonymous": false,
            "inputs": [
                {
                    "indexed": true,
                    "internalType": "address",
                    "name": "voterAddress",
                    "type": "address"
                }
            ],
            "name": "VoterAdded",
            "type": "event"
        },
        {
            "anonymous": false,
            "inputs": [
                {
                    "indexed": true,
                    "internalType": "uint256",
                    "name": "votingEndTime",
                    "type": "uint256"
                }
            ],
            "name": "VotingEnded",
            "type": "event"
        },
        {
            "anonymous": false,
            "inputs": [
                {
                    "indexed": true,
                    "internalType": "uint256",
                    "name": "votingStartTime",
                    "type": "uint256"
                }
            ],
            "name": "VotingStarted",
            "type": "event"
        },
        {
            "inputs": [
                {
                    "internalType": "address",
                    "name": "_adminAddress",
                    "type": "address"
                }
            ],
            "name": "addAdmin",
            "outputs": [],
            "stateMutability": "nonpayable",
            "type": "function"
        },
        {
            "inputs": [
                {
                    "internalType": "address",
                    "name": "_candidateAddress",
                    "type": "address"
                },
                {
                    "internalType": "string",
                    "name": "_candidateName",
                    "type": "string"
                }
            ],
            "name": "addCandidate",
            "outputs": [],
            "stateMutability": "nonpayable",
            "type": "function"
        },
        {
            "inputs": [
                {
                    "internalType": "address",
                    "name": "_voterAddress",
                    "type": "address"
                }
            ],
            "name": "addVoter",
            "outputs": [],
            "stateMutability": "nonpayable",
            "type": "function"
        },
        {
            "inputs": [
                {
                    "internalType": "address",
                    "name": "",
                    "type": "address"
                }
            ],
            "name": "admins",
            "outputs": [
                {
                    "internalType": "bool",
                    "name": "",
                    "type": "bool"
                }
            ],
            "stateMutability": "view",
            "type": "function"
        },
        {
            "inputs": [
                {
                    "internalType": "uint256",
                    "name": "",
                    "type": "uint256"
                }
            ],
            "name": "candidates",
            "outputs": [
                {
                    "internalType": "string",
                    "name": "name",
                    "type": "string"
                },
                {
                    "internalType": "uint256",
                    "name": "voteCount",
                    "type": "uint256"
                }
            ],
            "stateMutability": "view",
            "type": "function"
        },
        {
            "inputs": [
                {
                    "internalType": "address",
                    "name": "",
                    "type": "address"
                }
            ],
            "name": "candidatesAddress",
            "outputs": [
                {
                    "internalType": "bool",
                    "name": "",
                    "type": "bool"
                }
            ],
            "stateMutability": "view",
            "type": "function"
        },
        {
            "inputs": [],
            "name": "endVoting",
            "outputs": [],
            "stateMutability": "nonpayable",
            "type": "function"
        },
        {
            "inputs": [
                {
                    "internalType": "uint256",
                    "name": "_candidateId",
                    "type": "uint256"
                }
            ],
            "name": "getCandidateResult",
            "outputs": [
                {
                    "internalType": "string",
                    "name": "name",
                    "type": "string"
                },
                {
                    "internalType": "uint256",
                    "name": "voteCount",
                    "type": "uint256"
                }
            ],
            "stateMutability": "view",
            "type": "function"
        },
        {
            "inputs": [],
            "name": "getCandidates",
            "outputs": [
                {
                    "components": [
                        {
                            "internalType": "string",
                            "name": "name",
                            "type": "string"
                        },
                        {
                            "internalType": "uint256",
                            "name": "voteCount",
                            "type": "uint256"
                        }
                    ],
                    "internalType": "struct DecentralizedVoting.Candidate[]",
                    "name": "",
                    "type": "tuple[]"
                }
            ],
            "stateMutability": "view",
            "type": "function"
        },
        {
            "inputs": [
                {
                    "internalType": "address",
                    "name": "_voterAddress",
                    "type": "address"
                }
            ],
            "name": "getVoterStatus",
            "outputs": [
                {
                    "internalType": "bool",
                    "name": "",
                    "type": "bool"
                }
            ],
            "stateMutability": "view",
            "type": "function"
        },
        {
            "inputs": [],
            "name": "getVotingResult",
            "outputs": [
                {
                    "internalType": "uint256",
                    "name": "votes",
                    "type": "uint256"
                },
                {
                    "internalType": "uint256",
                    "name": "votersCount",
                    "type": "uint256"
                },
                {
                    "internalType": "uint256",
                    "name": "candidatesCount",
                    "type": "uint256"
                }
            ],
            "stateMutability": "view",
            "type": "function"
        },
        {
            "inputs": [],
            "name": "getVotingStatus",
            "outputs": [
                {
                    "internalType": "string",
                    "name": "",
                    "type": "string"
                }
            ],
            "stateMutability": "view",
            "type": "function"
        },
        {
            "inputs": [],
            "name": "getVotingTime",
            "outputs": [
                {
                    "internalType": "uint256",
                    "name": "startTime",
                    "type": "uint256"
                },
                {
                    "internalType": "uint256",
                    "name": "endTime",
                    "type": "uint256"
                }
            ],
            "stateMutability": "view",
            "type": "function"
        },
        {
            "inputs": [
                {
                    "internalType": "address",
                    "name": "",
                    "type": "address"
                }
            ],
            "name": "hasVoted",
            "outputs": [
                {
                    "internalType": "bool",
                    "name": "",
                    "type": "bool"
                }
            ],
            "stateMutability": "view",
            "type": "function"
        },
        {
            "inputs": [],
            "name": "owner",
            "outputs": [
                {
                    "internalType": "address",
                    "name": "",
                    "type": "address"
                }
            ],
            "stateMutability": "view",
            "type": "function"
        },
        {
            "inputs": [
                {
                    "internalType": "uint256",
                    "name": "_votingDuration",
                    "type": "uint256"
                }
            ],
            "name": "startVoting",
            "outputs": [],
            "stateMutability": "nonpayable",
            "type": "function"
        },
        {
            "inputs": [],
            "name": "totalCandidates",
            "outputs": [
                {
                    "internalType": "uint256",
                    "name": "",
                    "type": "uint256"
                }
            ],
            "stateMutability": "view",
            "type": "function"
        },
        {
            "inputs": [],
            "name": "totalVoters",
            "outputs": [
                {
                    "internalType": "uint256",
                    "name": "",
                    "type": "uint256"
                }
            ],
            "stateMutability": "view",
            "type": "function"
        },
        {
            "inputs": [],
            "name": "totalVotes",
            "outputs": [
                {
                    "internalType": "uint256",
                    "name": "",
                    "type": "uint256"
                }
            ],
            "stateMutability": "view",
            "type": "function"
        },
        {
            "inputs": [
                {
                    "internalType": "uint256",
                    "name": "_candidateId",
                    "type": "uint256"
                }
            ],
            "name": "vote",
            "outputs": [],
            "stateMutability": "nonpayable",
            "type": "function"
        },
        {
            "inputs": [
                {
                    "internalType": "address",
                    "name": "",
                    "type": "address"
                }
            ],
            "name": "voters",
            "outputs": [
                {
                    "internalType": "bool",
                    "name": "",
                    "type": "bool"
                }
            ],
            "stateMutability": "view",
            "type": "function"
        },
        {
            "inputs": [],
            "name": "votingEndTime",
            "outputs": [
                {
                    "internalType": "uint256",
                    "name": "",
                    "type": "uint256"
                }
            ],
            "stateMutability": "view",
            "type": "function"
        },
        {
            "inputs": [],
            "name": "votingEnded",
            "outputs": [
                {
                    "internalType": "bool",
                    "name": "",
                    "type": "bool"
                }
            ],
            "stateMutability": "view",
            "type": "function"
        },
        {
            "inputs": [],
            "name": "votingStarted",
            "outputs": [
                {
                    "internalType": "bool",
                    "name": "",
                    "type": "bool"
                }
            ],
            "stateMutability": "view",
            "type": "function"
        }
    ],
    "bytecode": "0x608060405234801561001057600080fd5b50336000806101000a81548173ffffffffffffffffffffffffffffffffffffffff021916908373ffffffffffffffffffffffffffffffffffffffff1602179055506001600860008060009054906101000a900473ffffffffffffffffffffffffffffffffffffffff1673ffffffffffffffffffffffffffffffffffffffff1673ffffffffffffffffffffffffffffffffffffffff16815260200190815260200160002060006101000a81548160ff0219169083151502179055506124a2806100d96000396000f3fe608060405234801561001057600080fd5b50600436106101585760003560e01c8063671d2b75116100c35780639d5a05291161007c5780639d5a0529146103bd578063a3ec138d146103db578063c3403ddf1461040b578063e93654d114610415578063f4ab9adf14610446578063f7dc6dce1461046257610158565b8063671d2b75146102f9578063704802751461031957806378e3ef201461033557806383d948b7146103655780638da5cb5b146103835780639a594f06146103a157610158565b80633477ee2e116101155780633477ee2e146102225780633866965c146102535780633d2f5bda14610271578063429b62e51461028d578063581c281c146102bd5780635f5300ff146102db57610158565b80630121b93f1461015d57806306a49fce1461017957806309eef43e146101975780630d15fd77146101c757806315c2f636146101e55780631ea736e014610204575b600080fd5b610177600480360381019061017291906118b7565b610492565b005b6101816107ed565b60405161018e9190611ea9565b60405180910390f35b6101b160048036038101906101ac919061183a565b6108e8565b6040516101be9190611ecb565b60405180910390f35b6101cf610908565b6040516101dc91906120f8565b60405180910390f35b6101ed61090e565b6040516101fb929190612113565b60405180910390f35b61020c610939565b60405161021991906120f8565b60405180910390f35b61023c600480360381019061023791906118b7565b61093f565b60405161024a929190611f08565b60405180910390f35b61025b6109fb565b60405161026891906120f8565b60405180910390f35b61028b600480360381019061028691906118b7565b610a01565b005b6102a760048036038101906102a2919061183a565b610b3c565b6040516102b49190611ecb565b60405180910390f35b6102c5610b5c565b6040516102d29190611ee6565b60405180910390f35b6102e3610c4a565b6040516102f091906120f8565b60405180910390f35b610301610c50565b6040516103109392919061213c565b60405180910390f35b610333600480360381019061032e919061183a565b610c69565b005b61034f600480360381019061034a919061183a565b610e22565b60405161035c9190611ecb565b60405180910390f35b61036d610ece565b60405161037a9190611ecb565b60405180910390f35b61038b610ee1565b6040516103989190611e8e565b60405180910390f35b6103bb60048036038101906103b69190611863565b610f05565b005b6103c56111a5565b6040516103d29190611ecb565b60405180910390f35b6103f560048036038101906103f0919061183a565b6111b8565b6040516104029190611ecb565b60405180910390f35b6104136111d8565b005b61042f600480360381019061042a91906118b7565b61134f565b60405161043d929190611f08565b60405180910390f35b610460600480360381019061045b919061183a565b6114c6565b005b61047c6004803603810190610477919061183a565b6116e5565b6040516104899190611ecb565b60405180910390f35b600660003373ffffffffffffffffffffffffffffffffffffffff1673ffffffffffffffffffffffffffffffffffffffff16815260200190815260200160002060009054906101000a900460ff1661051e576040517f08c379a000000000000000000000000000000000000000000000000000000000815260040161051590611f98565b60405180910390fd5b600960003373ffffffffffffffffffffffffffffffffffffffff1673ffffffffffffffffffffffffffffffffffffffff16815260200190815260200160002060009054906101000a900460ff16156105ab576040517f08c379a00000000000000000000000000000000000000000000000000000000081526004016105a290612038565b60405180910390fd5b600060149054906101000a900460ff166105fa576040517f08c379a00000000000000000000000000000000000000000000000000000000081526004016105f190611f58565b60405180910390fd5b600060159054906101000a900460ff161561064a576040517f08c379a000000000000000000000000000000000000000000000000000000000815260040161064190611fd8565b60405180910390fd5b600154421061068e576040517f08c379a000000000000000000000000000000000000000000000000000000000815260040161068590612058565b60405180910390fd5b60058054905081106106d5576040517f08c379a00000000000000000000000000000000000000000000000000000000081526004016106cc90612078565b60405180910390fd5b6001600960003373ffffffffffffffffffffffffffffffffffffffff1673ffffffffffffffffffffffffffffffffffffffff16815260200190815260200160002060006101000a81548160ff02191690831515021790555060058181548110610767577f4e487b7100000000000000000000000000000000000000000000000000000000600052603260045260246000fd5b9060005260206000209060020201600101600081548092919061078990612357565b9190505550600260008154809291906107a190612357565b9190505550803373ffffffffffffffffffffffffffffffffffffffff167f4d99b957a2bc29a30ebd96a7be8e68fe50a3c701db28a91436490b7d53870ca460405160405180910390a350565b60606005805480602002602001604051908101604052809291908181526020016000905b828210156108df578382906000526020600020906002020160405180604001604052908160008201805461084490612325565b80601f016020809104026020016040519081016040528092919081815260200182805461087090612325565b80156108bd5780601f10610892576101008083540402835291602001916108bd565b820191906000526020600020905b8154815290600101906020018083116108a057829003601f168201915b5050505050815260200160018201548152505081526020019060010190610811565b50505050905090565b60096020528060005260406000206000915054906101000a900460ff1681565b60025481565b600080600060149054906101000a900460ff1661092c57600061092e565b425b600154915091509091565b60015481565b6005818154811061094f57600080fd5b906000526020600020906002020160009150905080600001805461097290612325565b80601f016020809104026020016040519081016040528092919081815260200182805461099e90612325565b80156109eb5780601f106109c0576101008083540402835291602001916109eb565b820191906000526020600020905b8154815290600101906020018083116109ce57829003601f168201915b5050505050908060010154905082565b60045481565b60008054906101000a900473ffffffffffffffffffffffffffffffffffffffff1673ffffffffffffffffffffffffffffffffffffffff163373ffffffffffffffffffffffffffffffffffffffff1614610a8f576040517f08c379a0000000000000000000000000000000000000000000000000000000008152600401610a8690611f38565b60405180910390fd5b600060149054906101000a900460ff1615610adf576040517f08c379a0000000000000000000000000000000000000000000000000000000008152600401610ad690612018565b60405180910390fd5b6001600060146101000a81548160ff0219169083151502179055508042610b069190612245565b600181905550427fcf33babc496bb6dc2942b39cb7b75766bbbadf7da50d176ff8c513e99114023960405160405180910390a250565b60086020528060005260406000206000915054906101000a900460ff1681565b6060600060149054906101000a900460ff16610baf576040518060400160405280601681526020017f566f74696e6720686173206e6f742073746172746564000000000000000000008152509050610c47565b600060159054906101000a900460ff1680610bcc57506001544210155b15610c0e576040518060400160405280601081526020017f566f74696e672068617320656e646564000000000000000000000000000000008152509050610c47565b6040518060400160405280601181526020017f566f74696e67206973206f6e676f696e6700000000000000000000000000000081525090505b90565b60035481565b6000806000600254600354600454925092509250909192565b60008054906101000a900473ffffffffffffffffffffffffffffffffffffffff1673ffffffffffffffffffffffffffffffffffffffff163373ffffffffffffffffffffffffffffffffffffffff1614610cf7576040517f08c379a0000000000000000000000000000000000000000000000000000000008152600401610cee90611f38565b60405180910390fd5b600860008273ffffffffffffffffffffffffffffffffffffffff1673ffffffffffffffffffffffffffffffffffffffff16815260200190815260200160002060009054906101000a900460ff1615610d84576040517f08c379a0000000000000000000000000000000000000000000000000000000008152600401610d7b906120b8565b60405180910390fd5b6001600860008373ffffffffffffffffffffffffffffffffffffffff1673ffffffffffffffffffffffffffffffffffffffff16815260200190815260200160002060006101000a81548160ff0219169083151502179055508073ffffffffffffffffffffffffffffffffffffffff167f44d6d25963f097ad14f29f06854a01f575648a1ef82f30e562ccd3889717e33960405160405180910390a250565b6000600660008373ffffffffffffffffffffffffffffffffffffffff1673ffffffffffffffffffffffffffffffffffffffff16815260200190815260200160002060009054906101000a900460ff168015610ec75750600960008373ffffffffffffffffffffffffffffffffffffffff1673ffffffffffffffffffffffffffffffffffffffff16815260200190815260200160002060009054906101000a900460ff16155b9050919050565b600060149054906101000a900460ff1681565b60008054906101000a900473ffffffffffffffffffffffffffffffffffffffff1681565b600860003373ffffffffffffffffffffffffffffffffffffffff1673ffffffffffffffffffffffffffffffffffffffff16815260200190815260200160002060009054906101000a900460ff16610f91576040517f08c379a0000000000000000000000000000000000000000000000000000000008152600401610f8890612098565b60405180910390fd5b600060149054906101000a900460ff1615610fe1576040517f08c379a0000000000000000000000000000000000000000000000000000000008152600401610fd890612018565b60405180910390fd5b600760008373ffffffffffffffffffffffffffffffffffffffff1673ffffffffffffffffffffffffffffffffffffffff16815260200190815260200160002060009054906101000a900460ff161561106e576040517f08c379a000000000000000000000000000000000000000000000000000000000815260040161106590611ff8565b60405180910390fd5b600560405180604001604052808381526020016000815250908060018154018082558091505060019003906000526020600020906002020160009091909190915060008201518160000190805190602001906110cb929190611705565b506020820151816001015550506001600760008473ffffffffffffffffffffffffffffffffffffffff1673ffffffffffffffffffffffffffffffffffffffff16815260200190815260200160002060006101000a81548160ff0219169083151502179055506004600081548092919061114390612357565b9190505550806040516111569190611e77565b60405180910390208273ffffffffffffffffffffffffffffffffffffffff167f8b4af2e48fffe55a80e231b97639bf2b38e5d50f22c4263379c8d28fe824a89c60405160405180910390a35050565b600060159054906101000a900460ff1681565b60066020528060005260406000206000915054906101000a900460ff1681565b60008054906101000a900473ffffffffffffffffffffffffffffffffffffffff1673ffffffffffffffffffffffffffffffffffffffff163373ffffffffffffffffffffffffffffffffffffffff1614611266576040517f08c379a000000000000000000000000000000000000000000000000000000000815260040161125d90611f38565b60405180910390fd5b600060149054906101000a900460ff166112b5576040517f08c379a00000000000000000000000000000000000000000000000000000000081526004016112ac90611f78565b60405180910390fd5b600060159054906101000a900460ff1615611305576040517f08c379a00000000000000000000000000000000000000000000000000000000081526004016112fc906120d8565b60405180910390fd5b6001600060156101000a81548160ff021916908315150217905550427f81eb7415440ff8e6c8e92606fd3b0e5e6a5c99ea90cdb63b41aec54e897312b360405160405180910390a2565b60606000600580549050831061139a576040517f08c379a000000000000000000000000000000000000000000000000000000000815260040161139190612078565b60405180910390fd5b600583815481106113d4577f4e487b7100000000000000000000000000000000000000000000000000000000600052603260045260246000fd5b90600052602060002090600202016000016005848154811061141f577f4e487b7100000000000000000000000000000000000000000000000000000000600052603260045260246000fd5b90600052602060002090600202016001015481805461143d90612325565b80601f016020809104026020016040519081016040528092919081815260200182805461146990612325565b80156114b65780601f1061148b576101008083540402835291602001916114b6565b820191906000526020600020905b81548152906001019060200180831161149957829003601f168201915b5050505050915091509150915091565b600860003373ffffffffffffffffffffffffffffffffffffffff1673ffffffffffffffffffffffffffffffffffffffff16815260200190815260200160002060009054906101000a900460ff16611552576040517f08c379a000000000000000000000000000000000000000000000000000000000815260040161154990612098565b60405180910390fd5b600060149054906101000a900460ff16156115a2576040517f08c379a000000000000000000000000000000000000000000000000000000000815260040161159990612018565b60405180910390fd5b600660008273ffffffffffffffffffffffffffffffffffffffff1673ffffffffffffffffffffffffffffffffffffffff16815260200190815260200160002060009054906101000a900460ff161561162f576040517f08c379a000000000000000000000000000000000000000000000000000000000815260040161162690611fb8565b60405180910390fd5b6001600660008373ffffffffffffffffffffffffffffffffffffffff1673ffffffffffffffffffffffffffffffffffffffff16815260200190815260200160002060006101000a81548160ff0219169083151502179055506003600081548092919061169a90612357565b91905055508073ffffffffffffffffffffffffffffffffffffffff167fa636f4a11e2d3ba7f89d042ecb0a6b886716e98cd49d8fd876ee0f73bced42b860405160405180910390a250565b60076020528060005260406000206000915054906101000a900460ff1681565b82805461171190612325565b90600052602060002090601f016020900481019282611733576000855561177a565b82601f1061174c57805160ff191683800117855561177a565b8280016001018555821561177a579182015b8281111561177957825182559160200191906001019061175e565b5b509050611787919061178b565b5090565b5b808211156117a457600081600090555060010161178c565b5090565b60006117bb6117b6846121a4565b612173565b9050828152602081018484840111156117d357600080fd5b6117de8482856122e3565b509392505050565b6000813590506117f58161243e565b92915050565b600082601f83011261180c57600080fd5b813561181c8482602086016117a8565b91505092915050565b60008135905061183481612455565b92915050565b60006020828403121561184c57600080fd5b600061185a848285016117e6565b91505092915050565b6000806040838503121561187657600080fd5b6000611884858286016117e6565b925050602083013567ffffffffffffffff8111156118a157600080fd5b6118ad858286016117fb565b9150509250929050565b6000602082840312156118c957600080fd5b60006118d784828501611825565b91505092915050565b60006118ec8383611e1c565b905092915050565b6118fd8161229b565b82525050565b600061190e826121e4565b6119188185612207565b93508360208202850161192a856121d4565b8060005b85811015611966578484038952815161194785826118e0565b9450611952836121fa565b925060208a0199505060018101905061192e565b50829750879550505050505092915050565b611981816122ad565b82525050565b6000611992826121ef565b61199c8185612218565b93506119ac8185602086016122f2565b6119b58161242d565b840191505092915050565b60006119cb826121ef565b6119d58185612229565b93506119e58185602086016122f2565b6119ee8161242d565b840191505092915050565b6000611a04826121ef565b611a0e818561223a565b9350611a1e8185602086016122f2565b80840191505092915050565b6000611a37602183612229565b91507f4f6e6c79206f776e65722063616e2063616c6c20746869732066756e6374696f60008301527f6e000000000000000000000000000000000000000000000000000000000000006020830152604082019050919050565b6000611a9d601683612229565b91507f566f74696e6720686173206e6f742073746172746564000000000000000000006000830152602082019050919050565b6000611add601a83612229565b91507f566f74696e6720686173206e6f742073746172746564207965740000000000006000830152602082019050919050565b6000611b1d602183612229565b91507f4f6e6c7920766f7465722063616e2063616c6c20746869732066756e6374696f60008301527f6e000000000000000000000000000000000000000000000000000000000000006020830152604082019050919050565b6000611b83601483612229565b91507f566f74657220616c7265616479206578697374730000000000000000000000006000830152602082019050919050565b6000611bc3601083612229565b91507f566f74696e672068617320656e646564000000000000000000000000000000006000830152602082019050919050565b6000611c03601883612229565b91507f43616e64696461746520616c72656164792065786973747300000000000000006000830152602082019050919050565b6000611c43601a83612229565b91507f566f74696e672068617320616c726561647920737461727465640000000000006000830152602082019050919050565b6000611c83601783612229565b91507f566f7465722068617320616c726561647920766f7465640000000000000000006000830152602082019050919050565b6000611cc3601783612229565b91507f566f74696e6720706572696f642068617320656e6465640000000000000000006000830152602082019050919050565b6000611d03601483612229565b91507f496e76616c69642063616e6469646174652049440000000000000000000000006000830152602082019050919050565b6000611d43602183612229565b91507f4f6e6c792061646d696e2063616e2063616c6c20746869732066756e6374696f60008301527f6e000000000000000000000000000000000000000000000000000000000000006020830152604082019050919050565b6000611da9601483612229565b91507f41646d696e20616c7265616479206578697374730000000000000000000000006000830152602082019050919050565b6000611de9601883612229565b91507f566f74696e672068617320616c726561647920656e64656400000000000000006000830152602082019050919050565b60006040830160008301518482036000860152611e398282611987565b9150506020830151611e4e6020860182611e59565b508091505092915050565b611e62816122d9565b82525050565b611e71816122d9565b82525050565b6000611e8382846119f9565b915081905092915050565b6000602082019050611ea360008301846118f4565b92915050565b60006020820190508181036000830152611ec38184611903565b905092915050565b6000602082019050611ee06000830184611978565b92915050565b60006020820190508181036000830152611f0081846119c0565b905092915050565b60006040820190508181036000830152611f2281856119c0565b9050611f316020830184611e68565b9392505050565b60006020820190508181036000830152611f5181611a2a565b9050919050565b60006020820190508181036000830152611f7181611a90565b9050919050565b60006020820190508181036000830152611f9181611ad0565b9050919050565b60006020820190508181036000830152611fb181611b10565b9050919050565b60006020820190508181036000830152611fd181611b76565b9050919050565b60006020820190508181036000830152611ff181611bb6565b9050919050565b6000602082019050818103600083015261201181611bf6565b9050919050565b6000602082019050818103600083015261203181611c36565b9050919050565b6000602082019050818103600083015261205181611c76565b9050919050565b6000602082019050818103600083015261207181611cb6565b9050919050565b6000602082019050818103600083015261209181611cf6565b9050919050565b600060208201905081810360008301526120b181611d36565b9050919050565b600060208201905081810360008301526120d181611d9c565b9050919050565b600060208201905081810360008301526120f181611ddc565b9050919050565b600060208201905061210d6000830184611e68565b92915050565b60006040820190506121286000830185611e68565b6121356020830184611e68565b9392505050565b60006060820190506121516000830186611e68565b61215e6020830185611e68565b61216b6040830184611e68565b949350505050565b6000604051905081810181811067ffffffffffffffff8211171561219a576121996123fe565b5b8060405250919050565b600067ffffffffffffffff8211156121bf576121be6123fe565b5b601f19601f8301169050602081019050919050565b6000819050602082019050919050565b600081519050919050565b600081519050919050565b6000602082019050919050565b600082825260208201905092915050565b600082825260208201905092915050565b600082825260208201905092915050565b600081905092915050565b6000612250826122d9565b915061225b836122d9565b9250827fffffffffffffffffffffffffffffffffffffffffffffffffffffffffffffffff038211156122905761228f6123a0565b5b828201905092915050565b60006122a6826122b9565b9050919050565b60008115159050919050565b600073ffffffffffffffffffffffffffffffffffffffff82169050919050565b6000819050919050565b82818337600083830152505050565b60005b838110156123105780820151818401526020810190506122f5565b8381111561231f576000848401525b50505050565b6000600282049050600182168061233d57607f821691505b60208210811415612351576123506123cf565b5b50919050565b6000612362826122d9565b91507fffffffffffffffffffffffffffffffffffffffffffffffffffffffffffffffff821415612395576123946123a0565b5b600182019050919050565b7f4e487b7100000000000000000000000000000000000000000000000000000000600052601160045260246000fd5b7f4e487b7100000000000000000000000000000000000000000000000000000000600052602260045260246000fd5b7f4e487b7100000000000000000000000000000000000000000000000000000000600052604160045260246000fd5b6000601f19601f8301169050919050565b6124478161229b565b811461245257600080fd5b50565b61245e816122d9565b811461246957600080fd5b5056fea2646970667358221220d957163dc5c89df80d7281ea06afbc26eb277da90ad95ec73b93f7c6308ff29d64736f6c63430008000033",
    "linkReferences": {},
    "deployedLinkReferences": {}
}